{
  "contractName": "Order",
  "abi": [
    {
      "anonymous": false,
      "inputs": [
        {
          "indexed": false,
          "internalType": "address",
          "name": "_addressCus",
          "type": "address"
        },
        {
          "indexed": false,
          "internalType": "string",
          "name": "_id",
          "type": "string"
        }
      ],
      "name": "sendData",
      "type": "event"
    },
    {
      "inputs": [
        {
          "internalType": "uint256",
          "name": "",
          "type": "uint256"
        }
      ],
      "name": "customers",
      "outputs": [
        {
          "internalType": "string",
          "name": "id",
          "type": "string"
        },
        {
          "internalType": "address",
          "name": "addressCus",
          "type": "address"
        }
      ],
      "stateMutability": "view",
      "type": "function"
    },
    {
      "inputs": [
        {
          "internalType": "string",
          "name": "_id",
          "type": "string"
        }
      ],
      "name": "CreateOrder",
      "outputs": [],
      "stateMutability": "nonpayable",
      "type": "function"
    }
  ],
  "bytecode": "0x608060405234801561001057600080fd5b5061067d806100206000396000f3fe608060405234801561001057600080fd5b50600436106100365760003560e01c80633f77993a1461003b578063c0abda2a14610057575b600080fd5b61005560048036038101906100509190610382565b610088565b005b610071600480360381019061006c91906103c3565b610186565b60405161007f929190610464565b60405180910390f35b600060405180604001604052808381526020013373ffffffffffffffffffffffffffffffffffffffff168152509050600081908060018154018082558091505060019003906000526020600020906002020160009091909190915060008201518160000190805190602001906100ff929190610262565b5060208201518160010160006101000a81548173ffffffffffffffffffffffffffffffffffffffff021916908373ffffffffffffffffffffffffffffffffffffffff16021790555050507fe6dd938d3ed3f67370078675430f0cb20d372313406ca7589ff4f33d286c5800338360405161017a929190610434565b60405180910390a15050565b6000818154811061019657600080fd5b90600052602060002090600202016000915090508060000180546101b99061058f565b80601f01602080910402602001604051908101604052809291908181526020018280546101e59061058f565b80156102325780601f1061020757610100808354040283529160200191610232565b820191906000526020600020905b81548152906001019060200180831161021557829003601f168201915b5050505050908060010160009054906101000a900473ffffffffffffffffffffffffffffffffffffffff16905082565b82805461026e9061058f565b90600052602060002090601f01602090048101928261029057600085556102d7565b82601f106102a957805160ff19168380011785556102d7565b828001600101855582156102d7579182015b828111156102d65782518255916020019190600101906102bb565b5b5090506102e491906102e8565b5090565b5b808211156103015760008160009055506001016102e9565b5090565b6000610318610313846104c5565b610494565b90508281526020810184848401111561033057600080fd5b61033b84828561054d565b509392505050565b600082601f83011261035457600080fd5b8135610364848260208601610305565b91505092915050565b60008135905061037c81610630565b92915050565b60006020828403121561039457600080fd5b600082013567ffffffffffffffff8111156103ae57600080fd5b6103ba84828501610343565b91505092915050565b6000602082840312156103d557600080fd5b60006103e38482850161036d565b91505092915050565b6103f581610511565b82525050565b6000610406826104f5565b6104108185610500565b935061042081856020860161055c565b6104298161061f565b840191505092915050565b600060408201905061044960008301856103ec565b818103602083015261045b81846103fb565b90509392505050565b6000604082019050818103600083015261047e81856103fb565b905061048d60208301846103ec565b9392505050565b6000604051905081810181811067ffffffffffffffff821117156104bb576104ba6105f0565b5b8060405250919050565b600067ffffffffffffffff8211156104e0576104df6105f0565b5b601f19601f8301169050602081019050919050565b600081519050919050565b600082825260208201905092915050565b600061051c82610523565b9050919050565b600073ffffffffffffffffffffffffffffffffffffffff82169050919050565b6000819050919050565b82818337600083830152505050565b60005b8381101561057a57808201518184015260208101905061055f565b83811115610589576000848401525b50505050565b600060028204905060018216806105a757607f821691505b602082108114156105bb576105ba6105c1565b5b50919050565b7f4e487b7100000000000000000000000000000000000000000000000000000000600052602260045260246000fd5b7f4e487b7100000000000000000000000000000000000000000000000000000000600052604160045260246000fd5b6000601f19601f8301169050919050565b61063981610543565b811461064457600080fd5b5056fea26469706673582212207892db5bdea1627bb8cd2e88decf0e2275bcfb6fb1e17ed1b46644f80880b77764736f6c63430008000033",
  "immutableReferences": {},
  "source": "pragma solidity ^0.8.0;\r\n\r\ncontract Order{\r\n\r\n    Customer[] public customers;\r\n\r\n    struct Customer{\r\n        string id;\r\n        address addressCus;\r\n    }\r\n\r\n    event sendData(address _addressCus, string _id);\r\n\r\n    function CreateOrder(string memory _id) public {\r\n        Customer memory cus=Customer(_id, msg.sender);\r\n        customers.push(cus);\r\n        emit sendData(msg.sender,_id);\r\n    }\r\n}",
  "sourcePath": "C:\\TaiLieu\\project-ecommerce\\ecommerce-mern-stack\\backend\\contracts\\Order.sol",
  "compiler": {
    "name": "solc",
    "version": "0.8.0+commit.c7dfd78e.Emscripten.clang"
  },
  "schemaVersion": "3.4.4",
  "updatedAt": "2022-07-24T09:24:14.481Z",
  "devdoc": {
    "kind": "dev",
    "methods": {},
    "version": 1
  },
  "userdoc": {
    "kind": "user",
    "methods": {},
    "version": 1
  }
}